{
  "_format": "hh-sol-artifact-1",
  "contractName": "Domains",
  "sourceName": "contracts/domains.sol",
  "abi": [
    {
      "inputs": [
        {
          "internalType": "string",
          "name": "_tld",
          "type": "string"
        }
      ],
      "stateMutability": "payable",
      "type": "constructor"
    },
    {
      "anonymous": false,
      "inputs": [
        {
          "indexed": true,
          "internalType": "address",
          "name": "owner",
          "type": "address"
        },
        {
          "indexed": true,
          "internalType": "address",
          "name": "approved",
          "type": "address"
        },
        {
          "indexed": true,
          "internalType": "uint256",
          "name": "tokenId",
          "type": "uint256"
        }
      ],
      "name": "Approval",
      "type": "event"
    },
    {
      "anonymous": false,
      "inputs": [
        {
          "indexed": true,
          "internalType": "address",
          "name": "owner",
          "type": "address"
        },
        {
          "indexed": true,
          "internalType": "address",
          "name": "operator",
          "type": "address"
        },
        {
          "indexed": false,
          "internalType": "bool",
          "name": "approved",
          "type": "bool"
        }
      ],
      "name": "ApprovalForAll",
      "type": "event"
    },
    {
      "anonymous": false,
      "inputs": [
        {
          "indexed": true,
          "internalType": "address",
          "name": "from",
          "type": "address"
        },
        {
          "indexed": true,
          "internalType": "address",
          "name": "to",
          "type": "address"
        },
        {
          "indexed": true,
          "internalType": "uint256",
          "name": "tokenId",
          "type": "uint256"
        }
      ],
      "name": "Transfer",
      "type": "event"
    },
    {
      "inputs": [
        {
          "internalType": "address",
          "name": "to",
          "type": "address"
        },
        {
          "internalType": "uint256",
          "name": "tokenId",
          "type": "uint256"
        }
      ],
      "name": "approve",
      "outputs": [],
      "stateMutability": "nonpayable",
      "type": "function"
    },
    {
      "inputs": [
        {
          "internalType": "address",
          "name": "owner",
          "type": "address"
        }
      ],
      "name": "balanceOf",
      "outputs": [
        {
          "internalType": "uint256",
          "name": "",
          "type": "uint256"
        }
      ],
      "stateMutability": "view",
      "type": "function"
    },
    {
      "inputs": [
        {
          "internalType": "string",
          "name": "",
          "type": "string"
        }
      ],
      "name": "domains",
      "outputs": [
        {
          "internalType": "address",
          "name": "",
          "type": "address"
        }
      ],
      "stateMutability": "view",
      "type": "function"
    },
    {
      "inputs": [
        {
          "internalType": "string",
          "name": "name",
          "type": "string"
        }
      ],
      "name": "getAddress",
      "outputs": [
        {
          "internalType": "address",
          "name": "",
          "type": "address"
        }
      ],
      "stateMutability": "view",
      "type": "function"
    },
    {
      "inputs": [],
      "name": "getAllNames",
      "outputs": [
        {
          "internalType": "string[]",
          "name": "",
          "type": "string[]"
        }
      ],
      "stateMutability": "view",
      "type": "function"
    },
    {
      "inputs": [
        {
          "internalType": "uint256",
          "name": "tokenId",
          "type": "uint256"
        }
      ],
      "name": "getApproved",
      "outputs": [
        {
          "internalType": "address",
          "name": "",
          "type": "address"
        }
      ],
      "stateMutability": "view",
      "type": "function"
    },
    {
      "inputs": [
        {
          "internalType": "string",
          "name": "name",
          "type": "string"
        }
      ],
      "name": "getRecord",
      "outputs": [
        {
          "internalType": "string",
          "name": "",
          "type": "string"
        }
      ],
      "stateMutability": "view",
      "type": "function"
    },
    {
      "inputs": [
        {
          "internalType": "address",
          "name": "owner",
          "type": "address"
        },
        {
          "internalType": "address",
          "name": "operator",
          "type": "address"
        }
      ],
      "name": "isApprovedForAll",
      "outputs": [
        {
          "internalType": "bool",
          "name": "",
          "type": "bool"
        }
      ],
      "stateMutability": "view",
      "type": "function"
    },
    {
      "inputs": [],
      "name": "isOwner",
      "outputs": [
        {
          "internalType": "bool",
          "name": "",
          "type": "bool"
        }
      ],
      "stateMutability": "view",
      "type": "function"
    },
    {
      "inputs": [],
      "name": "name",
      "outputs": [
        {
          "internalType": "string",
          "name": "",
          "type": "string"
        }
      ],
      "stateMutability": "view",
      "type": "function"
    },
    {
      "inputs": [
        {
          "internalType": "uint256",
          "name": "",
          "type": "uint256"
        }
      ],
      "name": "names",
      "outputs": [
        {
          "internalType": "string",
          "name": "",
          "type": "string"
        }
      ],
      "stateMutability": "view",
      "type": "function"
    },
    {
      "inputs": [],
      "name": "owner",
      "outputs": [
        {
          "internalType": "address payable",
          "name": "",
          "type": "address"
        }
      ],
      "stateMutability": "view",
      "type": "function"
    },
    {
      "inputs": [
        {
          "internalType": "uint256",
          "name": "tokenId",
          "type": "uint256"
        }
      ],
      "name": "ownerOf",
      "outputs": [
        {
          "internalType": "address",
          "name": "",
          "type": "address"
        }
      ],
      "stateMutability": "view",
      "type": "function"
    },
    {
      "inputs": [
        {
          "internalType": "string",
          "name": "name",
          "type": "string"
        }
      ],
      "name": "price",
      "outputs": [
        {
          "internalType": "uint256",
          "name": "",
          "type": "uint256"
        }
      ],
      "stateMutability": "pure",
      "type": "function"
    },
    {
      "inputs": [
        {
          "internalType": "string",
          "name": "",
          "type": "string"
        }
      ],
      "name": "records",
      "outputs": [
        {
          "internalType": "string",
          "name": "",
          "type": "string"
        }
      ],
      "stateMutability": "view",
      "type": "function"
    },
    {
      "inputs": [
        {
          "internalType": "string",
          "name": "name",
          "type": "string"
        }
      ],
      "name": "register",
      "outputs": [],
      "stateMutability": "payable",
      "type": "function"
    },
    {
      "inputs": [
        {
          "internalType": "address",
          "name": "from",
          "type": "address"
        },
        {
          "internalType": "address",
          "name": "to",
          "type": "address"
        },
        {
          "internalType": "uint256",
          "name": "tokenId",
          "type": "uint256"
        }
      ],
      "name": "safeTransferFrom",
      "outputs": [],
      "stateMutability": "nonpayable",
      "type": "function"
    },
    {
      "inputs": [
        {
          "internalType": "address",
          "name": "from",
          "type": "address"
        },
        {
          "internalType": "address",
          "name": "to",
          "type": "address"
        },
        {
          "internalType": "uint256",
          "name": "tokenId",
          "type": "uint256"
        },
        {
          "internalType": "bytes",
          "name": "_data",
          "type": "bytes"
        }
      ],
      "name": "safeTransferFrom",
      "outputs": [],
      "stateMutability": "nonpayable",
      "type": "function"
    },
    {
      "inputs": [
        {
          "internalType": "address",
          "name": "operator",
          "type": "address"
        },
        {
          "internalType": "bool",
          "name": "approved",
          "type": "bool"
        }
      ],
      "name": "setApprovalForAll",
      "outputs": [],
      "stateMutability": "nonpayable",
      "type": "function"
    },
    {
      "inputs": [
        {
          "internalType": "string",
          "name": "name",
          "type": "string"
        },
        {
          "internalType": "string",
          "name": "record",
          "type": "string"
        }
      ],
      "name": "setRecord",
      "outputs": [],
      "stateMutability": "nonpayable",
      "type": "function"
    },
    {
      "inputs": [
        {
          "internalType": "bytes4",
          "name": "interfaceId",
          "type": "bytes4"
        }
      ],
      "name": "supportsInterface",
      "outputs": [
        {
          "internalType": "bool",
          "name": "",
          "type": "bool"
        }
      ],
      "stateMutability": "view",
      "type": "function"
    },
    {
      "inputs": [],
      "name": "symbol",
      "outputs": [
        {
          "internalType": "string",
          "name": "",
          "type": "string"
        }
      ],
      "stateMutability": "view",
      "type": "function"
    },
    {
      "inputs": [],
      "name": "tld",
      "outputs": [
        {
          "internalType": "string",
          "name": "",
          "type": "string"
        }
      ],
      "stateMutability": "view",
      "type": "function"
    },
    {
      "inputs": [
        {
          "internalType": "uint256",
          "name": "tokenId",
          "type": "uint256"
        }
      ],
      "name": "tokenURI",
      "outputs": [
        {
          "internalType": "string",
          "name": "",
          "type": "string"
        }
      ],
      "stateMutability": "view",
      "type": "function"
    },
    {
      "inputs": [
        {
          "internalType": "address",
          "name": "from",
          "type": "address"
        },
        {
          "internalType": "address",
          "name": "to",
          "type": "address"
        },
        {
          "internalType": "uint256",
          "name": "tokenId",
          "type": "uint256"
        }
      ],
      "name": "transferFrom",
      "outputs": [],
      "stateMutability": "nonpayable",
      "type": "function"
    },
    {
      "inputs": [],
      "name": "withdraw",
      "outputs": [],
      "stateMutability": "nonpayable",
      "type": "function"
    }
  ],
  "bytecode": "0x6080604052604051806108a0016040528061086b81526020016200519061086b91396009908051906020019062000038929190620002c8565b506040518060400160405280600d81526020017f3c2f746578743e3c2f7376673e00000000000000000000000000000000000000815250600a908051906020019062000086929190620002c8565b50604051620059fb380380620059fb8339818101604052810190620000ac919062000515565b6040518060400160405280601181526020017f596f6769204e616d6520536572766963650000000000000000000000000000008152506040518060400160405280600381526020017f594e530000000000000000000000000000000000000000000000000000000000815250816000908051906020019062000130929190620002c8565b50806001908051906020019062000149929190620002c8565b50505033600e60006101000a81548173ffffffffffffffffffffffffffffffffffffffff021916908373ffffffffffffffffffffffffffffffffffffffff1602179055508060089080519060200190620001a5929190620002c8565b50620001f26040518060400160405280601881526020017f2573206e616d652073657276696365206465706c6f796564000000000000000081525082620001f960201b62001a1d1760201c565b5062000663565b6200029b828260405160240162000212929190620005c3565b6040516020818303038152906040527f4b5c4277000000000000000000000000000000000000000000000000000000007bffffffffffffffffffffffffffffffffffffffffffffffffffffffff19166020820180517bffffffffffffffffffffffffffffffffffffffffffffffffffffffff83818316178352505050506200029f60201b60201c565b5050565b60008151905060006a636f6e736f6c652e6c6f679050602083016000808483855afa5050505050565b828054620002d6906200062d565b90600052602060002090601f016020900481019282620002fa576000855562000346565b82601f106200031557805160ff191683800117855562000346565b8280016001018555821562000346579182015b828111156200034557825182559160200191906001019062000328565b5b50905062000355919062000359565b5090565b5b80821115620003745760008160009055506001016200035a565b5090565b6000604051905090565b600080fd5b600080fd5b600080fd5b600080fd5b6000601f19601f8301169050919050565b7f4e487b7100000000000000000000000000000000000000000000000000000000600052604160045260246000fd5b620003e18262000396565b810181811067ffffffffffffffff82111715620004035762000402620003a7565b5b80604052505050565b60006200041862000378565b9050620004268282620003d6565b919050565b600067ffffffffffffffff821115620004495762000448620003a7565b5b620004548262000396565b9050602081019050919050565b60005b838110156200048157808201518184015260208101905062000464565b8381111562000491576000848401525b50505050565b6000620004ae620004a8846200042b565b6200040c565b905082815260208101848484011115620004cd57620004cc62000391565b5b620004da84828562000461565b509392505050565b600082601f830112620004fa57620004f96200038c565b5b81516200050c84826020860162000497565b91505092915050565b6000602082840312156200052e576200052d62000382565b5b600082015167ffffffffffffffff8111156200054f576200054e62000387565b5b6200055d84828501620004e2565b91505092915050565b600081519050919050565b600082825260208201905092915050565b60006200058f8262000566565b6200059b818562000571565b9350620005ad81856020860162000461565b620005b88162000396565b840191505092915050565b60006040820190508181036000830152620005df818562000582565b90508181036020830152620005f5818462000582565b90509392505050565b7f4e487b7100000000000000000000000000000000000000000000000000000000600052602260045260246000fd5b600060028204905060018216806200064657607f821691505b602082108114156200065d576200065c620005fe565b5b50919050565b614b1d80620006736000396000f3fe6080604052600436106101815760003560e01c806370a08231116100d1578063bf40fac11161008a578063e985e9c511610064578063e985e9c5146105cc578063f2c298be14610609578063fb825e5f14610625578063fe2c61981461065057610181565b8063bf40fac114610529578063c1880a9814610566578063c87b56dd1461058f57610181565b806370a08231146104195780638da5cb5b146104565780638f32d59b1461048157806395d89b41146104ac578063a22cb465146104d7578063b88d4fde1461050057610181565b8063264492351161013e57806342842e0e1161011857806342842e0e146103395780634622ab0314610362578063541e771d1461039f5780636352211e146103dc57610181565b806326449235146102ba5780632d551432146102f75780633ccfd60b1461032257610181565b806301ffc9a71461018657806306fdde03146101c3578063081812fc146101ee578063095ea7b31461022b57806311dd88451461025457806323b872dd14610291575b600080fd5b34801561019257600080fd5b506101ad60048036038101906101a89190612f02565b61068d565b6040516101ba9190612f4a565b60405180910390f35b3480156101cf57600080fd5b506101d861076f565b6040516101e59190612ffe565b60405180910390f35b3480156101fa57600080fd5b5061021560048036038101906102109190613056565b610801565b60405161022291906130c4565b60405180910390f35b34801561023757600080fd5b50610252600480360381019061024d919061310b565b610886565b005b34801561026057600080fd5b5061027b600480360381019061027691906131b0565b61099e565b6040516102889190612ffe565b60405180910390f35b34801561029d57600080fd5b506102b860048036038101906102b391906131fd565b610a51565b005b3480156102c657600080fd5b506102e160048036038101906102dc9190613380565b610ab1565b6040516102ee91906130c4565b60405180910390f35b34801561030357600080fd5b5061030c610afa565b6040516103199190612ffe565b60405180910390f35b34801561032e57600080fd5b50610337610b88565b005b34801561034557600080fd5b50610360600480360381019061035b91906131fd565b610c4e565b005b34801561036e57600080fd5b5061038960048036038101906103849190613056565b610c6e565b6040516103969190612ffe565b60405180910390f35b3480156103ab57600080fd5b506103c660048036038101906103c19190613380565b610d0e565b6040516103d39190612ffe565b60405180910390f35b3480156103e857600080fd5b5061040360048036038101906103fe9190613056565b610dc4565b60405161041091906130c4565b60405180910390f35b34801561042557600080fd5b50610440600480360381019061043b91906133c9565b610e76565b60405161044d9190613405565b60405180910390f35b34801561046257600080fd5b5061046b610f2e565b6040516104789190613441565b60405180910390f35b34801561048d57600080fd5b50610496610f54565b6040516104a39190612f4a565b60405180910390f35b3480156104b857600080fd5b506104c1610fac565b6040516104ce9190612ffe565b60405180910390f35b3480156104e357600080fd5b506104fe60048036038101906104f99190613488565b61103e565b005b34801561050c57600080fd5b5061052760048036038101906105229190613569565b611054565b005b34801561053557600080fd5b50610550600480360381019061054b91906131b0565b6110b6565b60405161055d91906130c4565b60405180910390f35b34801561057257600080fd5b5061058d600480360381019061058891906135ec565b611101565b005b34801561059b57600080fd5b506105b660048036038101906105b19190613056565b6111af565b6040516105c39190612ffe565b60405180910390f35b3480156105d857600080fd5b506105f360048036038101906105ee919061366d565b611301565b6040516106009190612f4a565b60405180910390f35b610623600480360381019061061e91906131b0565b611395565b005b34801561063157600080fd5b5061063a611799565b60405161064791906137b9565b60405180910390f35b34801561065c57600080fd5b50610677600480360381019061067291906131b0565b611977565b6040516106849190613405565b60405180910390f35b60007f80ac58cd000000000000000000000000000000000000000000000000000000007bffffffffffffffffffffffffffffffffffffffffffffffffffffffff1916827bffffffffffffffffffffffffffffffffffffffffffffffffffffffff1916148061075857507f5b5e139f000000000000000000000000000000000000000000000000000000007bffffffffffffffffffffffffffffffffffffffffffffffffffffffff1916827bffffffffffffffffffffffffffffffffffffffffffffffffffffffff1916145b80610768575061076782611ab9565b5b9050919050565b60606000805461077e9061380a565b80601f01602080910402602001604051908101604052809291908181526020018280546107aa9061380a565b80156107f75780601f106107cc576101008083540402835291602001916107f7565b820191906000526020600020905b8154815290600101906020018083116107da57829003601f168201915b5050505050905090565b600061080c82611b23565b61084b576040517f08c379a0000000000000000000000000000000000000000000000000000000008152600401610842906138ae565b60405180910390fd5b6004600083815260200190815260200160002060009054906101000a900473ffffffffffffffffffffffffffffffffffffffff169050919050565b600061089182610dc4565b90508073ffffffffffffffffffffffffffffffffffffffff168373ffffffffffffffffffffffffffffffffffffffff161415610902576040517f08c379a00000000000000000000000000000000000000000000000000000000081526004016108f990613940565b60405180910390fd5b8073ffffffffffffffffffffffffffffffffffffffff16610921611b8f565b73ffffffffffffffffffffffffffffffffffffffff161480610950575061094f8161094a611b8f565b611301565b5b61098f576040517f08c379a0000000000000000000000000000000000000000000000000000000008152600401610986906139d2565b60405180910390fd5b6109998383611b97565b505050565b6060600d83836040516109b2929190613a22565b908152602001604051809103902080546109cb9061380a565b80601f01602080910402602001604051908101604052809291908181526020018280546109f79061380a565b8015610a445780601f10610a1957610100808354040283529160200191610a44565b820191906000526020600020905b815481529060010190602001808311610a2757829003601f168201915b5050505050905092915050565b610a62610a5c611b8f565b82611c50565b610aa1576040517f08c379a0000000000000000000000000000000000000000000000000000000008152600401610a9890613aad565b60405180910390fd5b610aac838383611d2e565b505050565b600c818051602081018201805184825260208301602085012081835280955050505050506000915054906101000a900473ffffffffffffffffffffffffffffffffffffffff1681565b60088054610b079061380a565b80601f0160208091040260200160405190810160405280929190818152602001828054610b339061380a565b8015610b805780601f10610b5557610100808354040283529160200191610b80565b820191906000526020600020905b815481529060010190602001808311610b6357829003601f168201915b505050505081565b610b90610f54565b610b9957600080fd5b600047905060003373ffffffffffffffffffffffffffffffffffffffff1682604051610bc490613afe565b60006040518083038185875af1925050503d8060008114610c01576040519150601f19603f3d011682016040523d82523d6000602084013e610c06565b606091505b5050905080610c4a576040517f08c379a0000000000000000000000000000000000000000000000000000000008152600401610c4190613b5f565b60405180910390fd5b5050565b610c6983838360405180602001604052806000815250611054565b505050565b600b6020528060005260406000206000915090508054610c8d9061380a565b80601f0160208091040260200160405190810160405280929190818152602001828054610cb99061380a565b8015610d065780601f10610cdb57610100808354040283529160200191610d06565b820191906000526020600020905b815481529060010190602001808311610ce957829003601f168201915b505050505081565b600d818051602081018201805184825260208301602085012081835280955050505050506000915090508054610d439061380a565b80601f0160208091040260200160405190810160405280929190818152602001828054610d6f9061380a565b8015610dbc5780601f10610d9157610100808354040283529160200191610dbc565b820191906000526020600020905b815481529060010190602001808311610d9f57829003601f168201915b505050505081565b6000806002600084815260200190815260200160002060009054906101000a900473ffffffffffffffffffffffffffffffffffffffff169050600073ffffffffffffffffffffffffffffffffffffffff168173ffffffffffffffffffffffffffffffffffffffff161415610e6d576040517f08c379a0000000000000000000000000000000000000000000000000000000008152600401610e6490613bf1565b60405180910390fd5b80915050919050565b60008073ffffffffffffffffffffffffffffffffffffffff168273ffffffffffffffffffffffffffffffffffffffff161415610ee7576040517f08c379a0000000000000000000000000000000000000000000000000000000008152600401610ede90613c83565b60405180910390fd5b600360008373ffffffffffffffffffffffffffffffffffffffff1673ffffffffffffffffffffffffffffffffffffffff168152602001908152602001600020549050919050565b600e60009054906101000a900473ffffffffffffffffffffffffffffffffffffffff1681565b6000600e60009054906101000a900473ffffffffffffffffffffffffffffffffffffffff1673ffffffffffffffffffffffffffffffffffffffff163373ffffffffffffffffffffffffffffffffffffffff1614905090565b606060018054610fbb9061380a565b80601f0160208091040260200160405190810160405280929190818152602001828054610fe79061380a565b80156110345780601f1061100957610100808354040283529160200191611034565b820191906000526020600020905b81548152906001019060200180831161101757829003601f168201915b5050505050905090565b611050611049611b8f565b8383611f95565b5050565b61106561105f611b8f565b83611c50565b6110a4576040517f08c379a000000000000000000000000000000000000000000000000000000000815260040161109b90613aad565b60405180910390fd5b6110b084848484612102565b50505050565b6000600c83836040516110ca929190613a22565b908152602001604051809103902060009054906101000a900473ffffffffffffffffffffffffffffffffffffffff16905092915050565b3373ffffffffffffffffffffffffffffffffffffffff16600c858560405161112a929190613a22565b908152602001604051809103902060009054906101000a900473ffffffffffffffffffffffffffffffffffffffff1673ffffffffffffffffffffffffffffffffffffffff161461117957600080fd5b8181600d868660405161118d929190613a22565b908152602001604051809103902091906111a8929190612d6d565b5050505050565b60606111ba82611b23565b6111f9576040517f08c379a00000000000000000000000000000000000000000000000000000000081526004016111f090613d15565b60405180910390fd5b60006006600084815260200190815260200160002080546112199061380a565b80601f01602080910402602001604051908101604052809291908181526020018280546112459061380a565b80156112925780601f1061126757610100808354040283529160200191611292565b820191906000526020600020905b81548152906001019060200180831161127557829003601f168201915b5050505050905060006112a361215e565b90506000815114156112b95781925050506112fc565b6000825111156112ee5780826040516020016112d6929190613d66565b604051602081830303815290604052925050506112fc565b6112f784612175565b925050505b919050565b6000600560008473ffffffffffffffffffffffffffffffffffffffff1673ffffffffffffffffffffffffffffffffffffffff16815260200190815260200160002060008373ffffffffffffffffffffffffffffffffffffffff1673ffffffffffffffffffffffffffffffffffffffff16815260200190815260200160002060009054906101000a900460ff16905092915050565b600073ffffffffffffffffffffffffffffffffffffffff16600c83836040516113bf929190613a22565b908152602001604051809103902060009054906101000a900473ffffffffffffffffffffffffffffffffffffffff1673ffffffffffffffffffffffffffffffffffffffff161461140e57600080fd5b600061141a8383611977565b90508034101561145f576040517f08c379a000000000000000000000000000000000000000000000000000000000815260040161145690613dd6565b60405180910390fd5b60008383600860405160200161147793929190613ed6565b60405160208183030381529060405290506000600982600a6040516020016114a193929190613f07565b604051602081830303815290604052905060006114be600761221c565b9050600061150f87878080601f016020809104026020016040519081016040528093929190818152602001838380828437600081840152601f19601f8201169050808301925050505050505061222a565b9050600061151c826123df565b9050611610604051806060016040528060318152602001614a3e6031913989898080601f016020809104026020016040519081016040528093929190818152602001838380828437600081840152601f19601f820116905080830192505050505050506008805461158c9061380a565b80601f01602080910402602001604051908101604052809291908181526020018280546115b89061380a565b80156116055780601f106115da57610100808354040283529160200191611605565b820191906000526020600020905b8154815290600101906020018083116115e857829003601f168201915b505050505086612540565b60006116468661161f876125e2565b84604051602001611632939291906140b4565b6040516020818303038152906040526125e2565b905060008160405160200161165b919061415d565b604051602081830303815290604052905061168d604051806060016040528060398152602001614a056039913961277a565b6116cc6040518060400160405280600e81526020017f46696e616c20746f6b656e55524900000000000000000000000000000000000081525082611a1d565b6116ed604051806060016040528060398152602001614a6f6039913961277a565b6116f73386612813565b6117018582612831565b33600c8b8b604051611714929190613a22565b908152602001604051809103902060006101000a81548173ffffffffffffffffffffffffffffffffffffffff021916908373ffffffffffffffffffffffffffffffffffffffff1602179055508989600b60008881526020019081526020016000209190611782929190612d6d565b5061178d60076128a5565b50505050505050505050565b60606117d96040518060400160405280601f81526020017f47657474696e6720616c6c206e616d65732066726f6d20636f6e74726163740081525061277a565b60006117e5600761221c565b67ffffffffffffffff8111156117fe576117fd613255565b5b60405190808252806020026020018201604052801561183157816020015b606081526020019060019003908161181c5790505b50905060005b611841600761221c565b81101561196f57600b600082815260200190815260200160002080546118669061380a565b80601f01602080910402602001604051908101604052809291908181526020018280546118929061380a565b80156118df5780601f106118b4576101008083540402835291602001916118df565b820191906000526020600020905b8154815290600101906020018083116118c257829003601f168201915b50505050508282815181106118f7576118f661417f565b5b602002602001018190525061195c6040518060400160405280601781526020017f4e616d6520666f7220746f6b656e2025642069732025730000000000000000008152508284848151811061194f5761194e61417f565b5b60200260200101516128bb565b8080611967906141dd565b915050611837565b508091505090565b6000806119c784848080601f016020809104026020016040519081016040528093929190818152602001838380828437600081840152601f19601f8201169050808301925050505050505061222a565b9050600081116119d657600080fd5b60038114156119f0576706f05b59d3b20000915050611a17565b6004811415611a0a57670429d069189e0000915050611a17565b67016345785d8a00009150505b92915050565b611ab58282604051602401611a33929190614226565b6040516020818303038152906040527f4b5c4277000000000000000000000000000000000000000000000000000000007bffffffffffffffffffffffffffffffffffffffffffffffffffffffff19166020820180517bffffffffffffffffffffffffffffffffffffffffffffffffffffffff838183161783525050505061295a565b5050565b60007f01ffc9a7000000000000000000000000000000000000000000000000000000007bffffffffffffffffffffffffffffffffffffffffffffffffffffffff1916827bffffffffffffffffffffffffffffffffffffffffffffffffffffffff1916149050919050565b60008073ffffffffffffffffffffffffffffffffffffffff166002600084815260200190815260200160002060009054906101000a900473ffffffffffffffffffffffffffffffffffffffff1673ffffffffffffffffffffffffffffffffffffffff1614159050919050565b600033905090565b816004600083815260200190815260200160002060006101000a81548173ffffffffffffffffffffffffffffffffffffffff021916908373ffffffffffffffffffffffffffffffffffffffff160217905550808273ffffffffffffffffffffffffffffffffffffffff16611c0a83610dc4565b73ffffffffffffffffffffffffffffffffffffffff167f8c5be1e5ebec7d5bd14f71427d1e84f3dd0314c0f7b2291e5b200ac8c7c3b92560405160405180910390a45050565b6000611c5b82611b23565b611c9a576040517f08c379a0000000000000000000000000000000000000000000000000000000008152600401611c91906142cf565b60405180910390fd5b6000611ca583610dc4565b90508073ffffffffffffffffffffffffffffffffffffffff168473ffffffffffffffffffffffffffffffffffffffff161480611ce75750611ce68185611301565b5b80611d2557508373ffffffffffffffffffffffffffffffffffffffff16611d0d84610801565b73ffffffffffffffffffffffffffffffffffffffff16145b91505092915050565b8273ffffffffffffffffffffffffffffffffffffffff16611d4e82610dc4565b73ffffffffffffffffffffffffffffffffffffffff1614611da4576040517f08c379a0000000000000000000000000000000000000000000000000000000008152600401611d9b90614361565b60405180910390fd5b600073ffffffffffffffffffffffffffffffffffffffff168273ffffffffffffffffffffffffffffffffffffffff161415611e14576040517f08c379a0000000000000000000000000000000000000000000000000000000008152600401611e0b906143f3565b60405180910390fd5b611e1f838383612983565b611e2a600082611b97565b6001600360008573ffffffffffffffffffffffffffffffffffffffff1673ffffffffffffffffffffffffffffffffffffffff1681526020019081526020016000206000828254611e7a9190614413565b925050819055506001600360008473ffffffffffffffffffffffffffffffffffffffff1673ffffffffffffffffffffffffffffffffffffffff1681526020019081526020016000206000828254611ed19190614447565b92505081905550816002600083815260200190815260200160002060006101000a81548173ffffffffffffffffffffffffffffffffffffffff021916908373ffffffffffffffffffffffffffffffffffffffff160217905550808273ffffffffffffffffffffffffffffffffffffffff168473ffffffffffffffffffffffffffffffffffffffff167fddf252ad1be2c89b69c2b068fc378daa952ba7f163c4a11628f55a4df523b3ef60405160405180910390a4611f90838383612988565b505050565b8173ffffffffffffffffffffffffffffffffffffffff168373ffffffffffffffffffffffffffffffffffffffff161415612004576040517f08c379a0000000000000000000000000000000000000000000000000000000008152600401611ffb906144e9565b60405180910390fd5b80600560008573ffffffffffffffffffffffffffffffffffffffff1673ffffffffffffffffffffffffffffffffffffffff16815260200190815260200160002060008473ffffffffffffffffffffffffffffffffffffffff1673ffffffffffffffffffffffffffffffffffffffff16815260200190815260200160002060006101000a81548160ff0219169083151502179055508173ffffffffffffffffffffffffffffffffffffffff168373ffffffffffffffffffffffffffffffffffffffff167f17307eab39ab6107e8899845ad3d59bd9653f200f220920489ca2b5937696c31836040516120f59190612f4a565b60405180910390a3505050565b61210d848484611d2e565b6121198484848461298d565b612158576040517f08c379a000000000000000000000000000000000000000000000000000000000815260040161214f9061457b565b60405180910390fd5b50505050565b606060405180602001604052806000815250905090565b606061218082611b23565b6121bf576040517f08c379a00000000000000000000000000000000000000000000000000000000081526004016121b69061460d565b60405180910390fd5b60006121c961215e565b905060008151116121e95760405180602001604052806000815250612214565b806121f3846123df565b604051602001612204929190613d66565b6040516020818303038152906040525b915050919050565b600081600001549050919050565b60008060008084519050600092505b808210156123d45760008583815181106122565761225561417f565b5b602001015160f81c60f81b9050608060f81b817effffffffffffffffffffffffffffffffffffffffffffffffffffffffffffff191610156122a55760018361229e9190614447565b92506123c0565b60e060f81b817effffffffffffffffffffffffffffffffffffffffffffffffffffffffffffff191610156122e7576002836122e09190614447565b92506123bf565b60f060f81b817effffffffffffffffffffffffffffffffffffffffffffffffffffffffffffff19161015612329576003836123229190614447565b92506123be565b60f8801b817effffffffffffffffffffffffffffffffffffffffffffffffffffffffffffff1916101561236a576004836123639190614447565b92506123bd565b60fc60f81b817effffffffffffffffffffffffffffffffffffffffffffffffffffffffffffff191610156123ac576005836123a59190614447565b92506123bc565b6006836123b99190614447565b92505b5b5b5b5b5082806123cc906141dd565b935050612239565b829350505050919050565b60606000821415612427576040518060400160405280600181526020017f3000000000000000000000000000000000000000000000000000000000000000815250905061253b565b600082905060005b60008214612459578080612442906141dd565b915050600a82612452919061465c565b915061242f565b60008167ffffffffffffffff81111561247557612474613255565b5b6040519080825280601f01601f1916602001820160405280156124a75781602001600182028036833780820191505090505b5090505b60008514612534576001826124c09190614413565b9150600a856124cf919061468d565b60306124db9190614447565b60f81b8183815181106124f1576124f061417f565b5b60200101907effffffffffffffffffffffffffffffffffffffffffffffffffffffffffffff1916908160001a905350600a8561252d919061465c565b94506124ab565b8093505050505b919050565b6125dc8484848460405160240161255a94939291906146be565b6040516020818303038152906040527f9fd009f5000000000000000000000000000000000000000000000000000000007bffffffffffffffffffffffffffffffffffffffffffffffffffffffff19166020820180517bffffffffffffffffffffffffffffffffffffffffffffffffffffffff838183161783525050505061295a565b50505050565b6060600082519050600081141561260b5760405180602001604052806000815250915050612775565b6000600360028361261c9190614447565b612626919061465c565b60046126329190614718565b905060006020826126439190614447565b67ffffffffffffffff81111561265c5761265b613255565b5b6040519080825280601f01601f19166020018201604052801561268e5781602001600182028036833780820191505090505b5090506000604051806060016040528060408152602001614aa8604091399050600181016020830160005b868110156127325760038101905062ffffff818a015116603f8160121c168401518060081b905060ff603f83600c1c1686015116810190508060081b905060ff603f8360061c1686015116810190508060081b905060ff603f831686015116810190508060e01b905080845260048401935050506126b9565b50600386066001811461274c576002811461275c57612767565b613d3d60f01b6002830352612767565b603d60f81b60018303525b508484525050819450505050505b919050565b6128108160405160240161278e9190612ffe565b6040516020818303038152906040527f41304fac000000000000000000000000000000000000000000000000000000007bffffffffffffffffffffffffffffffffffffffffffffffffffffffff19166020820180517bffffffffffffffffffffffffffffffffffffffffffffffffffffffff838183161783525050505061295a565b50565b61282d828260405180602001604052806000815250612b15565b5050565b61283a82611b23565b612879576040517f08c379a0000000000000000000000000000000000000000000000000000000008152600401612870906147e4565b60405180910390fd5b806006600084815260200190815260200160002090805190602001906128a0929190612df3565b505050565b6001816000016000828254019250508190555050565b6129558383836040516024016128d393929190614804565b6040516020818303038152906040527fa3f5c739000000000000000000000000000000000000000000000000000000007bffffffffffffffffffffffffffffffffffffffffffffffffffffffff19166020820180517bffffffffffffffffffffffffffffffffffffffffffffffffffffffff838183161783525050505061295a565b505050565b60008151905060006a636f6e736f6c652e6c6f679050602083016000808483855afa5050505050565b505050565b505050565b60006129ae8473ffffffffffffffffffffffffffffffffffffffff16612b70565b15612b08578373ffffffffffffffffffffffffffffffffffffffff1663150b7a026129d7611b8f565b8786866040518563ffffffff1660e01b81526004016129f9949392919061489e565b6020604051808303816000875af1925050508015612a3557506040513d601f19601f82011682018060405250810190612a3291906148ff565b60015b612ab8573d8060008114612a65576040519150601f19603f3d011682016040523d82523d6000602084013e612a6a565b606091505b50600081511415612ab0576040517f08c379a0000000000000000000000000000000000000000000000000000000008152600401612aa79061457b565b60405180910390fd5b805181602001fd5b63150b7a0260e01b7bffffffffffffffffffffffffffffffffffffffffffffffffffffffff1916817bffffffffffffffffffffffffffffffffffffffffffffffffffffffff191614915050612b0d565b600190505b949350505050565b612b1f8383612b93565b612b2c600084848461298d565b612b6b576040517f08c379a0000000000000000000000000000000000000000000000000000000008152600401612b629061457b565b60405180910390fd5b505050565b6000808273ffffffffffffffffffffffffffffffffffffffff163b119050919050565b600073ffffffffffffffffffffffffffffffffffffffff168273ffffffffffffffffffffffffffffffffffffffff161415612c03576040517f08c379a0000000000000000000000000000000000000000000000000000000008152600401612bfa90614978565b60405180910390fd5b612c0c81611b23565b15612c4c576040517f08c379a0000000000000000000000000000000000000000000000000000000008152600401612c43906149e4565b60405180910390fd5b612c5860008383612983565b6001600360008473ffffffffffffffffffffffffffffffffffffffff1673ffffffffffffffffffffffffffffffffffffffff1681526020019081526020016000206000828254612ca89190614447565b92505081905550816002600083815260200190815260200160002060006101000a81548173ffffffffffffffffffffffffffffffffffffffff021916908373ffffffffffffffffffffffffffffffffffffffff160217905550808273ffffffffffffffffffffffffffffffffffffffff16600073ffffffffffffffffffffffffffffffffffffffff167fddf252ad1be2c89b69c2b068fc378daa952ba7f163c4a11628f55a4df523b3ef60405160405180910390a4612d6960008383612988565b5050565b828054612d799061380a565b90600052602060002090601f016020900481019282612d9b5760008555612de2565b82601f10612db457803560ff1916838001178555612de2565b82800160010185558215612de2579182015b82811115612de1578235825591602001919060010190612dc6565b5b509050612def9190612e79565b5090565b828054612dff9061380a565b90600052602060002090601f016020900481019282612e215760008555612e68565b82601f10612e3a57805160ff1916838001178555612e68565b82800160010185558215612e68579182015b82811115612e67578251825591602001919060010190612e4c565b5b509050612e759190612e79565b5090565b5b80821115612e92576000816000905550600101612e7a565b5090565b6000604051905090565b600080fd5b600080fd5b60007fffffffff0000000000000000000000000000000000000000000000000000000082169050919050565b612edf81612eaa565b8114612eea57600080fd5b50565b600081359050612efc81612ed6565b92915050565b600060208284031215612f1857612f17612ea0565b5b6000612f2684828501612eed565b91505092915050565b60008115159050919050565b612f4481612f2f565b82525050565b6000602082019050612f5f6000830184612f3b565b92915050565b600081519050919050565b600082825260208201905092915050565b60005b83811015612f9f578082015181840152602081019050612f84565b83811115612fae576000848401525b50505050565b6000601f19601f8301169050919050565b6000612fd082612f65565b612fda8185612f70565b9350612fea818560208601612f81565b612ff381612fb4565b840191505092915050565b600060208201905081810360008301526130188184612fc5565b905092915050565b6000819050919050565b61303381613020565b811461303e57600080fd5b50565b6000813590506130508161302a565b92915050565b60006020828403121561306c5761306b612ea0565b5b600061307a84828501613041565b91505092915050565b600073ffffffffffffffffffffffffffffffffffffffff82169050919050565b60006130ae82613083565b9050919050565b6130be816130a3565b82525050565b60006020820190506130d960008301846130b5565b92915050565b6130e8816130a3565b81146130f357600080fd5b50565b600081359050613105816130df565b92915050565b6000806040838503121561312257613121612ea0565b5b6000613130858286016130f6565b925050602061314185828601613041565b9150509250929050565b600080fd5b600080fd5b600080fd5b60008083601f8401126131705761316f61314b565b5b8235905067ffffffffffffffff81111561318d5761318c613150565b5b6020830191508360018202830111156131a9576131a8613155565b5b9250929050565b600080602083850312156131c7576131c6612ea0565b5b600083013567ffffffffffffffff8111156131e5576131e4612ea5565b5b6131f18582860161315a565b92509250509250929050565b60008060006060848603121561321657613215612ea0565b5b6000613224868287016130f6565b9350506020613235868287016130f6565b925050604061324686828701613041565b9150509250925092565b600080fd5b7f4e487b7100000000000000000000000000000000000000000000000000000000600052604160045260246000fd5b61328d82612fb4565b810181811067ffffffffffffffff821117156132ac576132ab613255565b5b80604052505050565b60006132bf612e96565b90506132cb8282613284565b919050565b600067ffffffffffffffff8211156132eb576132ea613255565b5b6132f482612fb4565b9050602081019050919050565b82818337600083830152505050565b600061332361331e846132d0565b6132b5565b90508281526020810184848401111561333f5761333e613250565b5b61334a848285613301565b509392505050565b600082601f8301126133675761336661314b565b5b8135613377848260208601613310565b91505092915050565b60006020828403121561339657613395612ea0565b5b600082013567ffffffffffffffff8111156133b4576133b3612ea5565b5b6133c084828501613352565b91505092915050565b6000602082840312156133df576133de612ea0565b5b60006133ed848285016130f6565b91505092915050565b6133ff81613020565b82525050565b600060208201905061341a60008301846133f6565b92915050565b600061342b82613083565b9050919050565b61343b81613420565b82525050565b60006020820190506134566000830184613432565b92915050565b61346581612f2f565b811461347057600080fd5b50565b6000813590506134828161345c565b92915050565b6000806040838503121561349f5761349e612ea0565b5b60006134ad858286016130f6565b92505060206134be85828601613473565b9150509250929050565b600067ffffffffffffffff8211156134e3576134e2613255565b5b6134ec82612fb4565b9050602081019050919050565b600061350c613507846134c8565b6132b5565b90508281526020810184848401111561352857613527613250565b5b613533848285613301565b509392505050565b600082601f8301126135505761354f61314b565b5b81356135608482602086016134f9565b91505092915050565b6000806000806080858703121561358357613582612ea0565b5b6000613591878288016130f6565b94505060206135a2878288016130f6565b93505060406135b387828801613041565b925050606085013567ffffffffffffffff8111156135d4576135d3612ea5565b5b6135e08782880161353b565b91505092959194509250565b6000806000806040858703121561360657613605612ea0565b5b600085013567ffffffffffffffff81111561362457613623612ea5565b5b6136308782880161315a565b9450945050602085013567ffffffffffffffff81111561365357613652612ea5565b5b61365f8782880161315a565b925092505092959194509250565b6000806040838503121561368457613683612ea0565b5b6000613692858286016130f6565b92505060206136a3858286016130f6565b9150509250929050565b600081519050919050565b600082825260208201905092915050565b6000819050602082019050919050565b600082825260208201905092915050565b60006136f582612f65565b6136ff81856136d9565b935061370f818560208601612f81565b61371881612fb4565b840191505092915050565b600061372f83836136ea565b905092915050565b6000602082019050919050565b600061374f826136ad565b61375981856136b8565b93508360208202850161376b856136c9565b8060005b858110156137a757848403895281516137888582613723565b945061379383613737565b925060208a0199505060018101905061376f565b50829750879550505050505092915050565b600060208201905081810360008301526137d38184613744565b905092915050565b7f4e487b7100000000000000000000000000000000000000000000000000000000600052602260045260246000fd5b6000600282049050600182168061382257607f821691505b60208210811415613836576138356137db565b5b50919050565b7f4552433732313a20617070726f76656420717565727920666f72206e6f6e657860008201527f697374656e7420746f6b656e0000000000000000000000000000000000000000602082015250565b6000613898602c83612f70565b91506138a38261383c565b604082019050919050565b600060208201905081810360008301526138c78161388b565b9050919050565b7f4552433732313a20617070726f76616c20746f2063757272656e74206f776e6560008201527f7200000000000000000000000000000000000000000000000000000000000000602082015250565b600061392a602183612f70565b9150613935826138ce565b604082019050919050565b600060208201905081810360008301526139598161391d565b9050919050565b7f4552433732313a20617070726f76652063616c6c6572206973206e6f74206f7760008201527f6e6572206e6f7220617070726f76656420666f7220616c6c0000000000000000602082015250565b60006139bc603883612f70565b91506139c782613960565b604082019050919050565b600060208201905081810360008301526139eb816139af565b9050919050565b600081905092915050565b6000613a0983856139f2565b9350613a16838584613301565b82840190509392505050565b6000613a2f8284866139fd565b91508190509392505050565b7f4552433732313a207472616e736665722063616c6c6572206973206e6f74206f60008201527f776e6572206e6f7220617070726f766564000000000000000000000000000000602082015250565b6000613a97603183612f70565b9150613aa282613a3b565b604082019050919050565b60006020820190508181036000830152613ac681613a8a565b9050919050565b600081905092915050565b50565b6000613ae8600083613acd565b9150613af382613ad8565b600082019050919050565b6000613b0982613adb565b9150819050919050565b7f4661696c656420746f207769746864726177204d617469630000000000000000600082015250565b6000613b49601883612f70565b9150613b5482613b13565b602082019050919050565b60006020820190508181036000830152613b7881613b3c565b9050919050565b7f4552433732313a206f776e657220717565727920666f72206e6f6e657869737460008201527f656e7420746f6b656e0000000000000000000000000000000000000000000000602082015250565b6000613bdb602983612f70565b9150613be682613b7f565b604082019050919050565b60006020820190508181036000830152613c0a81613bce565b9050919050565b7f4552433732313a2062616c616e636520717565727920666f7220746865207a6560008201527f726f206164647265737300000000000000000000000000000000000000000000602082015250565b6000613c6d602a83612f70565b9150613c7882613c11565b604082019050919050565b60006020820190508181036000830152613c9c81613c60565b9050919050565b7f45524337323155524953746f726167653a2055524920717565727920666f722060008201527f6e6f6e6578697374656e7420746f6b656e000000000000000000000000000000602082015250565b6000613cff603183612f70565b9150613d0a82613ca3565b604082019050919050565b60006020820190508181036000830152613d2e81613cf2565b9050919050565b6000613d4082612f65565b613d4a81856139f2565b9350613d5a818560208601612f81565b80840191505092915050565b6000613d728285613d35565b9150613d7e8284613d35565b91508190509392505050565b7f4e6f7420656e6f756768204d6174696320706169640000000000000000000000600082015250565b6000613dc0601583612f70565b9150613dcb82613d8a565b602082019050919050565b60006020820190508181036000830152613def81613db3565b9050919050565b7f2e00000000000000000000000000000000000000000000000000000000000000600082015250565b6000613e2c6001836139f2565b9150613e3782613df6565b600182019050919050565b60008190508160005260206000209050919050565b60008154613e648161380a565b613e6e81866139f2565b94506001821660008114613e895760018114613e9a57613ecd565b60ff19831686528186019350613ecd565b613ea385613e42565b60005b83811015613ec557815481890152600182019150602081019050613ea6565b838801955050505b50505092915050565b6000613ee38285876139fd565b9150613eee82613e1f565b9150613efa8284613e57565b9150819050949350505050565b6000613f138286613e57565b9150613f1f8285613d35565b9150613f2b8284613e57565b9150819050949350505050565b7f7b226e616d65223a202200000000000000000000000000000000000000000000600082015250565b6000613f6e600a836139f2565b9150613f7982613f38565b600a82019050919050565b7f222c20226465736372697074696f6e223a20224120646f6d61696e206f6e207460008201527f686520596f6769206e616d652073657276696365222c2022696d616765223a2060208201527f22646174613a696d6167652f7376672b786d6c3b6261736536342c0000000000604082015250565b6000614006605b836139f2565b915061401182613f84565b605b82019050919050565b7f222c226c656e677468223a220000000000000000000000000000000000000000600082015250565b6000614052600c836139f2565b915061405d8261401c565b600c82019050919050565b7f227d000000000000000000000000000000000000000000000000000000000000600082015250565b600061409e6002836139f2565b91506140a982614068565b600282019050919050565b60006140bf82613f61565b91506140cb8286613d35565b91506140d682613ff9565b91506140e28285613d35565b91506140ed82614045565b91506140f98284613d35565b915061410482614091565b9150819050949350505050565b7f646174613a6170706c69636174696f6e2f6a736f6e3b6261736536342c000000600082015250565b6000614147601d836139f2565b915061415282614111565b601d82019050919050565b60006141688261413a565b91506141748284613d35565b915081905092915050565b7f4e487b7100000000000000000000000000000000000000000000000000000000600052603260045260246000fd5b7f4e487b7100000000000000000000000000000000000000000000000000000000600052601160045260246000fd5b60006141e882613020565b91507fffffffffffffffffffffffffffffffffffffffffffffffffffffffffffffffff82141561421b5761421a6141ae565b5b600182019050919050565b600060408201905081810360008301526142408185612fc5565b905081810360208301526142548184612fc5565b90509392505050565b7f4552433732313a206f70657261746f7220717565727920666f72206e6f6e657860008201527f697374656e7420746f6b656e0000000000000000000000000000000000000000602082015250565b60006142b9602c83612f70565b91506142c48261425d565b604082019050919050565b600060208201905081810360008301526142e8816142ac565b9050919050565b7f4552433732313a207472616e736665722066726f6d20696e636f72726563742060008201527f6f776e6572000000000000000000000000000000000000000000000000000000602082015250565b600061434b602583612f70565b9150614356826142ef565b604082019050919050565b6000602082019050818103600083015261437a8161433e565b9050919050565b7f4552433732313a207472616e7366657220746f20746865207a65726f2061646460008201527f7265737300000000000000000000000000000000000000000000000000000000602082015250565b60006143dd602483612f70565b91506143e882614381565b604082019050919050565b6000602082019050818103600083015261440c816143d0565b9050919050565b600061441e82613020565b915061442983613020565b92508282101561443c5761443b6141ae565b5b828203905092915050565b600061445282613020565b915061445d83613020565b9250827fffffffffffffffffffffffffffffffffffffffffffffffffffffffffffffffff03821115614492576144916141ae565b5b828201905092915050565b7f4552433732313a20617070726f766520746f2063616c6c657200000000000000600082015250565b60006144d3601983612f70565b91506144de8261449d565b602082019050919050565b60006020820190508181036000830152614502816144c6565b9050919050565b7f4552433732313a207472616e7366657220746f206e6f6e20455243373231526560008201527f63656976657220696d706c656d656e7465720000000000000000000000000000602082015250565b6000614565603283612f70565b915061457082614509565b604082019050919050565b6000602082019050818103600083015261459481614558565b9050919050565b7f4552433732314d657461646174613a2055524920717565727920666f72206e6f60008201527f6e6578697374656e7420746f6b656e0000000000000000000000000000000000602082015250565b60006145f7602f83612f70565b91506146028261459b565b604082019050919050565b60006020820190508181036000830152614626816145ea565b9050919050565b7f4e487b7100000000000000000000000000000000000000000000000000000000600052601260045260246000fd5b600061466782613020565b915061467283613020565b9250826146825761468161462d565b5b828204905092915050565b600061469882613020565b91506146a383613020565b9250826146b3576146b261462d565b5b828206905092915050565b600060808201905081810360008301526146d88187612fc5565b905081810360208301526146ec8186612fc5565b905081810360408301526147008185612fc5565b905061470f60608301846133f6565b95945050505050565b600061472382613020565b915061472e83613020565b9250817fffffffffffffffffffffffffffffffffffffffffffffffffffffffffffffffff0483118215151615614767576147666141ae565b5b828202905092915050565b7f45524337323155524953746f726167653a2055524920736574206f66206e6f6e60008201527f6578697374656e7420746f6b656e000000000000000000000000000000000000602082015250565b60006147ce602e83612f70565b91506147d982614772565b604082019050919050565b600060208201905081810360008301526147fd816147c1565b9050919050565b6000606082019050818103600083015261481e8186612fc5565b905061482d60208301856133f6565b818103604083015261483f8184612fc5565b9050949350505050565b600081519050919050565b600082825260208201905092915050565b600061487082614849565b61487a8185614854565b935061488a818560208601612f81565b61489381612fb4565b840191505092915050565b60006080820190506148b360008301876130b5565b6148c060208301866130b5565b6148cd60408301856133f6565b81810360608301526148df8184614865565b905095945050505050565b6000815190506148f981612ed6565b92915050565b60006020828403121561491557614914612ea0565b5b6000614923848285016148ea565b91505092915050565b7f4552433732313a206d696e7420746f20746865207a65726f2061646472657373600082015250565b6000614962602083612f70565b915061496d8261492c565b602082019050919050565b6000602082019050818103600083015261499181614955565b9050919050565b7f4552433732313a20746f6b656e20616c7265616479206d696e74656400000000600082015250565b60006149ce601c83612f70565b91506149d982614998565b602082019050919050565b600060208201905081810360008301526149fd816149c1565b905091905056fe0a2d2d2d2d2d2d2d2d2d2d2d2d2d2d2d2d2d2d2d2d2d2d2d2d2d2d2d2d2d2d2d2d2d2d2d2d2d2d2d2d2d2d2d2d2d2d2d2d2d2d2d2d2d2d2d2d5265676973746572696e672025732e2573206f6e2074686520636f6e7472616374207769746820746f6b656e49442025642d2d2d2d2d2d2d2d2d2d2d2d2d2d2d2d2d2d2d2d2d2d2d2d2d2d2d2d2d2d2d2d2d2d2d2d2d2d2d2d2d2d2d2d2d2d2d2d2d2d2d2d2d2d2d2d0a4142434445464748494a4b4c4d4e4f505152535455565758595a6162636465666768696a6b6c6d6e6f707172737475767778797a303132333435363738392b2fa2646970667358221220632bc53a3372517ed163fbb8a6645cdcf29fc09f4607a8a5f8690b8eeae829a264736f6c634300080a00333c73766720786d6c6e733d22687474703a2f2f7777772e77332e6f72672f323030302f737667222077696474683d2232373022206865696768743d22323730222066696c6c3d226e6f6e65223e3c706174682066696c6c3d2275726c282342292220643d224d302030683237307632373048307a222f3e3c646566733e3c66696c7465722069643d22412220636f6c6f722d696e746572706f6c6174696f6e2d66696c746572733d2273524742222066696c746572556e6974733d227573657253706163654f6e55736522206865696768743d22323730222077696474683d22323730223e3c666544726f70536861646f772064783d2230222064793d22312220737464446576696174696f6e3d22322220666c6f6f642d6f7061636974793d222e323235222077696474683d223230302522206865696768743d2232303025222f3e3c2f66696c7465723e3c2f646566733e3c7061746820643d224d37322e3836332034322e393439632d2e3636382d2e3338372d312e3432362d2e35392d322e3139372d2e3539732d312e3532392e3230342d322e3139372e35396c2d31302e30383120362e3033322d362e383520332e3933342d31302e30383120362e303332632d2e3636382e3338372d312e3432362e35392d322e3139372e3539732d312e3532392d2e3230342d322e3139372d2e35396c2d382e3031332d342e37323161342e353220342e35322030203020312d312e3538392d312e363136632d2e3338342d2e3636352d2e3539342d312e3431382d2e3630382d322e313837762d392e3331632d2e3031332d2e3737352e3138352d312e3533382e3537322d322e32303861342e323520342e323520302030203120312e3632352d312e3539356c372e3838342d342e3539632e3636382d2e33383720312e3432362d2e353920322e3139372d2e353973312e3532392e32303420322e3139372e35396c372e38383420342e353961342e353220342e353220302030203120312e35383920312e363136632e3338342e3636352e35393420312e3431382e36303820322e31383776362e3033326c362e38352d342e303635762d362e303332632e3031332d2e3737352d2e3138352d312e3533382d2e3537322d322e32303861342e323520342e32352030203020302d312e3632352d312e3539354c34312e3435362032342e3539632d2e3636382d2e3338372d312e3432362d2e35392d322e3139372d2e3539732d312e3532392e3230342d322e3139372e35396c2d31342e38363420382e36353561342e323520342e32352030203020302d312e36323520312e353935632d2e3338372e36372d2e35383520312e3433342d2e35373220322e3230387631372e343431632d2e3031332e3737352e31383520312e3533382e35373220322e32303861342e323520342e323520302030203020312e36323520312e3539356c31342e38363420382e363535632e3636382e33383720312e3432362e353920322e3139372e353973312e3532392d2e32303420322e3139372d2e35396c31302e3038312d352e39303120362e38352d342e3036352031302e3038312d352e393031632e3636382d2e33383720312e3432362d2e353920322e3139372d2e353973312e3532392e32303420322e3139372e35396c372e38383420342e353961342e353220342e353220302030203120312e35383920312e363136632e3338342e3636352e35393420312e3431382e36303820322e31383776392e333131632e3031332e3737352d2e31383520312e3533382d2e35373220322e32303861342e323520342e32352030203020312d312e36323520312e3539356c2d372e38383420342e373231632d2e3636382e3338372d312e3432362e35392d322e3139372e3539732d312e3532392d2e3230342d322e3139372d2e35396c2d372e3838342d342e353961342e353220342e35322030203020312d312e3538392d312e363136632d2e3338352d2e3636352d2e3539342d312e3431382d2e3630382d322e313837762d362e3033326c2d362e383520342e30363576362e303332632d2e3031332e3737352e31383520312e3533382e35373220322e32303861342e323520342e323520302030203020312e36323520312e3539356c31342e38363420382e363535632e3636382e33383720312e3432362e353920322e3139372e353973312e3532392d2e32303420322e3139372d2e35396c31342e3836342d382e363535632e3635372d2e33393420312e3230342d2e393520312e3538392d312e363136732e3539342d312e3431382e3630392d322e3138375635352e353338632e3031332d2e3737352d2e3138352d312e3533382d2e3537322d322e32303861342e323520342e32352030203020302d312e3632352d312e3539356c2d31342e3939332d382e3738367a222066696c6c3d2223666666222f3e3c646566733e3c6c696e6561724772616469656e742069643d2242222078313d2230222079313d2230222078323d22323730222079323d2232373022206772616469656e74556e6974733d227573657253706163654f6e557365223e3c73746f702073746f702d636f6c6f723d2223636235656565222f3e3c73746f70206f66667365743d2231222073746f702d636f6c6f723d2223306364376534222073746f702d6f7061636974793d222e3939222f3e3c2f6c696e6561724772616469656e743e3c2f646566733e3c7465787420783d2233322e352220793d223233312220666f6e742d73697a653d223237222066696c6c3d2223666666222066696c7465723d2275726c282341292220666f6e742d66616d696c793d22506c7573204a616b617274612053616e732c44656a6156752053616e732c4e6f746f20436f6c6f7220456d6f6a692c4170706c6520436f6c6f7220456d6f6a692c73616e732d73657269662220666f6e742d7765696768743d22626f6c64223e",
  "linkReferences": {},
  "deployedLinkReferences": {}
}